{
  "contractName": "Lottery",
  "abi": [
    {
      "constant": true,
      "inputs": [],
      "name": "XORThirdNumber",
      "outputs": [
        {
          "name": "",
          "type": "uint256"
        }
      ],
      "payable": false,
      "stateMutability": "view",
      "type": "function"
    },
    {
      "constant": true,
      "inputs": [],
      "name": "blocksHalfRound",
      "outputs": [
        {
          "name": "",
          "type": "uint256"
        }
      ],
      "payable": false,
      "stateMutability": "view",
      "type": "function"
    },
    {
      "constant": true,
      "inputs": [],
      "name": "XORFirstNumber",
      "outputs": [
        {
          "name": "",
          "type": "uint256"
        }
      ],
      "payable": false,
      "stateMutability": "view",
      "type": "function"
    },
    {
      "constant": true,
      "inputs": [],
      "name": "XORSecondNumber",
      "outputs": [
        {
          "name": "",
          "type": "uint256"
        }
      ],
      "payable": false,
      "stateMutability": "view",
      "type": "function"
    },
    {
      "constant": true,
      "inputs": [],
      "name": "balance",
      "outputs": [
        {
          "name": "",
          "type": "uint256"
        }
      ],
      "payable": false,
      "stateMutability": "view",
      "type": "function"
    },
    {
      "constant": true,
      "inputs": [],
      "name": "firstBlockNumber",
      "outputs": [
        {
          "name": "",
          "type": "uint256"
        }
      ],
      "payable": false,
      "stateMutability": "view",
      "type": "function"
    },
    {
      "constant": true,
      "inputs": [
        {
          "name": "",
          "type": "uint256"
        }
      ],
      "name": "revealedList",
      "outputs": [
        {
          "name": "entitledToDrawAddres",
          "type": "address"
        },
        {
          "name": "ticketInfo",
          "type": "uint256"
        },
        {
          "name": "revealedHalfRoundIndex",
          "type": "uint256"
        }
      ],
      "payable": false,
      "stateMutability": "view",
      "type": "function"
    },
    {
      "inputs": [],
      "payable": false,
      "stateMutability": "nonpayable",
      "type": "constructor"
    },
    {
      "constant": false,
      "inputs": [
        {
          "name": "firstHashValue",
          "type": "bytes32"
        },
        {
          "name": "secondHashValue",
          "type": "bytes32"
        },
        {
          "name": "thirdHashValue",
          "type": "bytes32"
        }
      ],
      "name": "buyTicket",
      "outputs": [],
      "payable": true,
      "stateMutability": "payable",
      "type": "function"
    },
    {
      "constant": false,
      "inputs": [
        {
          "name": "firstHashValue",
          "type": "bytes32"
        },
        {
          "name": "secondHashValue",
          "type": "bytes32"
        },
        {
          "name": "thirdHashValue",
          "type": "bytes32"
        },
        {
          "name": "ticketInfo",
          "type": "uint256"
        }
      ],
      "name": "submission",
      "outputs": [],
      "payable": false,
      "stateMutability": "nonpayable",
      "type": "function"
    },
    {
      "constant": false,
      "inputs": [
        {
          "name": "firstNumber",
          "type": "uint256"
        },
        {
          "name": "secondNumber",
          "type": "uint256"
        },
        {
          "name": "thirdNumber",
          "type": "uint256"
        }
      ],
      "name": "revealStage",
      "outputs": [],
      "payable": false,
      "stateMutability": "nonpayable",
      "type": "function"
    },
    {
      "constant": false,
      "inputs": [],
      "name": "draw",
      "outputs": [],
      "payable": false,
      "stateMutability": "nonpayable",
      "type": "function"
    },
    {
      "constant": true,
      "inputs": [],
      "name": "isDrawPossible",
      "outputs": [
        {
          "name": "",
          "type": "bool"
        }
      ],
      "payable": false,
      "stateMutability": "view",
      "type": "function"
    },
    {
      "constant": true,
      "inputs": [
        {
          "name": "firstNumber",
          "type": "uint256"
        },
        {
          "name": "secondNumber",
          "type": "uint256"
        },
        {
          "name": "thirdNumber",
          "type": "uint256"
        },
        {
          "name": "index",
          "type": "uint256"
        }
      ],
      "name": "revealSecretNumberHash",
      "outputs": [
        {
          "name": "",
          "type": "bool"
        }
      ],
      "payable": false,
      "stateMutability": "view",
      "type": "function"
    },
    {
      "constant": true,
      "inputs": [
        {
          "name": "num",
          "type": "uint256"
        }
      ],
      "name": "getKeccakHash",
      "outputs": [
        {
          "name": "",
          "type": "bytes32"
        }
      ],
      "payable": false,
      "stateMutability": "view",
      "type": "function"
    },
    {
      "constant": false,
      "inputs": [
        {
          "name": "ticketInfo",
          "type": "uint256"
        }
      ],
      "name": "addRevealedInfoToList",
      "outputs": [],
      "payable": false,
      "stateMutability": "nonpayable",
      "type": "function"
    },
    {
      "constant": true,
      "inputs": [],
      "name": "getLotteryHalfRoundIndex",
      "outputs": [
        {
          "name": "",
          "type": "uint256"
        }
      ],
      "payable": false,
      "stateMutability": "view",
      "type": "function"
    },
    {
      "constant": false,
      "inputs": [
        {
          "name": "firstNumber",
          "type": "uint256"
        },
        {
          "name": "secondNumber",
          "type": "uint256"
        },
        {
          "name": "thirdNumber",
          "type": "uint256"
        }
      ],
      "name": "performXOROperations",
      "outputs": [],
      "payable": false,
      "stateMutability": "nonpayable",
      "type": "function"
    },
    {
      "constant": false,
      "inputs": [
        {
          "name": "index",
          "type": "uint256"
        }
      ],
      "name": "deletePlayerFromPlayers",
      "outputs": [],
      "payable": false,
      "stateMutability": "nonpayable",
      "type": "function"
    },
    {
      "constant": false,
      "inputs": [
        {
          "name": "index",
          "type": "uint256"
        }
      ],
      "name": "removeWinnerFromRevealedList",
      "outputs": [],
      "payable": false,
      "stateMutability": "nonpayable",
      "type": "function"
    },
    {
      "constant": true,
      "inputs": [
        {
          "name": "ticketInfo",
          "type": "uint256"
        }
      ],
      "name": "firstPrizeForTicketInfo",
      "outputs": [
        {
          "name": "",
          "type": "uint256"
        }
      ],
      "payable": false,
      "stateMutability": "view",
      "type": "function"
    },
    {
      "constant": true,
      "inputs": [
        {
          "name": "ticketInfo",
          "type": "uint256"
        }
      ],
      "name": "secondPrizeForTicketInfo",
      "outputs": [
        {
          "name": "",
          "type": "uint256"
        }
      ],
      "payable": false,
      "stateMutability": "view",
      "type": "function"
    },
    {
      "constant": true,
      "inputs": [
        {
          "name": "ticketInfo",
          "type": "uint256"
        }
      ],
      "name": "thirdPrizeForTicketInfo",
      "outputs": [
        {
          "name": "",
          "type": "uint256"
        }
      ],
      "payable": false,
      "stateMutability": "view",
      "type": "function"
    },
    {
      "constant": false,
      "inputs": [],
      "name": "withdraw",
      "outputs": [],
      "payable": false,
      "stateMutability": "nonpayable",
      "type": "function"
    },
    {
      "constant": true,
      "inputs": [],
      "name": "getFirstBlockNumber",
      "outputs": [
        {
          "name": "",
          "type": "uint256"
        }
      ],
      "payable": false,
      "stateMutability": "view",
      "type": "function"
    },
    {
      "constant": true,
      "inputs": [],
      "name": "getBlockNumber",
      "outputs": [
        {
          "name": "",
          "type": "uint256"
        }
      ],
      "payable": false,
      "stateMutability": "view",
      "type": "function"
    },
    {
      "constant": true,
      "inputs": [],
      "name": "getAccountBalance",
      "outputs": [
        {
          "name": "",
          "type": "uint256"
        }
      ],
      "payable": false,
      "stateMutability": "view",
      "type": "function"
    },
    {
      "constant": true,
      "inputs": [],
      "name": "getLotteryBalance",
      "outputs": [
        {
          "name": "",
          "type": "uint256"
        }
      ],
      "payable": false,
      "stateMutability": "view",
      "type": "function"
    },
    {
      "constant": true,
      "inputs": [
        {
          "name": "number",
          "type": "uint256"
        },
        {
          "name": "hashNumber",
          "type": "bytes32"
        }
      ],
      "name": "isHashTrue",
      "outputs": [
        {
          "name": "",
          "type": "bool"
        }
      ],
      "payable": false,
      "stateMutability": "view",
      "type": "function"
    },
    {
      "constant": true,
      "inputs": [],
      "name": "getAddress",
      "outputs": [
        {
          "name": "",
          "type": "address"
        }
      ],
      "payable": false,
      "stateMutability": "view",
      "type": "function"
    },
    {
      "constant": true,
      "inputs": [],
      "name": "getPlayer",
      "outputs": [
        {
          "name": "",
          "type": "bytes32"
        },
        {
          "name": "",
          "type": "uint256"
        },
        {
          "name": "",
          "type": "uint256"
        },
        {
          "name": "",
          "type": "uint256"
        }
      ],
      "payable": false,
      "stateMutability": "view",
      "type": "function"
    },
    {
      "constant": false,
      "inputs": [],
      "name": "getPlayerAfterDelete",
      "outputs": [
        {
          "name": "",
          "type": "bytes32"
        },
        {
          "name": "",
          "type": "uint256"
        },
        {
          "name": "",
          "type": "uint256"
        },
        {
          "name": "",
          "type": "uint256"
        }
      ],
      "payable": false,
      "stateMutability": "nonpayable",
      "type": "function"
    },
    {
      "constant": true,
      "inputs": [
        {
          "name": "adressOfPlayer",
          "type": "address"
        }
      ],
      "name": "getPlayerLength",
      "outputs": [
        {
          "name": "",
          "type": "uint256"
        }
      ],
      "payable": false,
      "stateMutability": "view",
      "type": "function"
    },
    {
      "constant": true,
      "inputs": [],
      "name": "XORdivideFirst",
      "outputs": [
        {
          "name": "",
          "type": "uint256"
        }
      ],
      "payable": false,
      "stateMutability": "view",
      "type": "function"
    },
    {
      "constant": true,
      "inputs": [],
      "name": "XORdivideSecond",
      "outputs": [
        {
          "name": "",
          "type": "uint256"
        }
      ],
      "payable": false,
      "stateMutability": "view",
      "type": "function"
    },
    {
      "constant": true,
      "inputs": [],
      "name": "XORdivideThird",
      "outputs": [
        {
          "name": "",
          "type": "uint256"
        }
      ],
      "payable": false,
      "stateMutability": "view",
      "type": "function"
    },
    {
      "constant": true,
      "inputs": [],
      "name": "XORStatic",
      "outputs": [
        {
          "name": "",
          "type": "uint256"
        }
      ],
      "payable": false,
      "stateMutability": "pure",
      "type": "function"
    },
    {
      "constant": true,
      "inputs": [],
      "name": "getRevealListLength",
      "outputs": [
        {
          "name": "",
          "type": "uint256"
        }
      ],
      "payable": false,
      "stateMutability": "view",
      "type": "function"
    },
    {
      "constant": true,
      "inputs": [],
      "name": "getRevealListTicketInfo",
      "outputs": [
        {
          "name": "",
          "type": "uint256"
        }
      ],
      "payable": false,
      "stateMutability": "view",
      "type": "function"
    },
    {
      "constant": true,
      "inputs": [],
      "name": "getRevealListAddress",
      "outputs": [
        {
          "name": "",
          "type": "address"
        }
      ],
      "payable": false,
      "stateMutability": "view",
      "type": "function"
    },
    {
      "constant": true,
      "inputs": [
        {
          "name": "prizeAddress",
          "type": "address"
        }
      ],
      "name": "getPrizeMapForAddress",
      "outputs": [
        {
          "name": "",
          "type": "uint256"
        }
      ],
      "payable": false,
      "stateMutability": "view",
      "type": "function"
    },
    {
      "constant": true,
      "inputs": [],
      "name": "getAddressSenderForTest",
      "outputs": [
        {
          "name": "",
          "type": "address"
        }
      ],
      "payable": false,
      "stateMutability": "view",
      "type": "function"
    },
    {
      "constant": true,
      "inputs": [],
      "name": "getTotalBalanceForTest",
      "outputs": [
        {
          "name": "",
          "type": "uint256"
        }
      ],
      "payable": false,
      "stateMutability": "view",
      "type": "function"
    }
  ],
  "bytecode": "0x608060405234801561001057600080fd5b506000600681905550436007819055506122998061002f6000396000f300608060405260043610610204576000357c0100000000000000000000000000000000000000000000000000000000900463ffffffff16806304a3df891461020957806305b631701461025257806306efab651461027d5780630ae1d21e146102a85780630b917e8b146102d35780630eecae21146102fe5780630fe18b58146103155780632e4c6dd4146103405780632edfd9c1146103815780633308f42d146103ae5780633779dadc146103f657806338cc4831146104215780633ccfd60b1461047857806340dea7081461048f57806342cbb15c146104ba5780634c588ad5146104e55780634edb89521461051057806350a1882f146105675780635d71dad8146105ca5780635f219276146105f957806360654e471461064157806360b79a031461066c57806363f9a85a146106975780636896fabf146106d85780636913fd63146107035780636ef126c31461073057806385c7b97f1461075b5780638a62a174146107885780638b115bc2146107c95780639aa50a1a146108205780639b7a9e8114610861578063ae359a061461088c578063b51babd1146108cc578063b69ef8a81461091f578063ce3a763c1461094a578063d29df73114610975578063d7488a7a146109cc578063db7cd5f114610a47578063de9a30bc14610a88578063e4dbaced14610adf578063ebcaec3214610b0a578063fbcb54ac14610b61575b600080fd5b34801561021557600080fd5b5061023460048036038101908080359060200190929190505050610b8c565b60405180826000191660001916815260200191505060405180910390f35b34801561025e57600080fd5b50610267610bee565b6040518082815260200191505060405180910390f35b34801561028957600080fd5b50610292610bfa565b6040518082815260200191505060405180910390f35b3480156102b457600080fd5b506102bd610c00565b6040518082815260200191505060405180910390f35b3480156102df57600080fd5b506102e8610c06565b6040518082815260200191505060405180910390f35b34801561030a57600080fd5b50610313610c0f565b005b34801561032157600080fd5b5061032a610fc1565b6040518082815260200191505060405180910390f35b34801561034c57600080fd5b5061037f600480360381019080803590602001909291908035906020019092919080359060200190929190505050610fc7565b005b34801561038d57600080fd5b506103ac60048036038101908080359060200190929190505050611159565b005b3480156103ba57600080fd5b506103c3611368565b60405180856000191660001916815260200184815260200183815260200182815260200194505050505060405180910390f35b34801561040257600080fd5b5061040b6114f8565b6040518082815260200191505060405180910390f35b34801561042d57600080fd5b50610436611514565b604051808273ffffffffffffffffffffffffffffffffffffffff1673ffffffffffffffffffffffffffffffffffffffff16815260200191505060405180910390f35b34801561048457600080fd5b5061048d61151c565b005b34801561049b57600080fd5b506104a461163e565b6040518082815260200191505060405180910390f35b3480156104c657600080fd5b506104cf61165a565b6040518082815260200191505060405180910390f35b3480156104f157600080fd5b506104fa611662565b6040518082815260200191505060405180910390f35b34801561051c57600080fd5b50610551600480360381019080803573ffffffffffffffffffffffffffffffffffffffff16906020019092919050505061167e565b6040518082815260200191505060405180910390f35b34801561057357600080fd5b506105b0600480360381019080803590602001909291908035906020019092919080359060200190929190803590602001909291905050506116c7565b604051808215151515815260200191505060405180910390f35b3480156105d657600080fd5b506105df611833565b604051808215151515815260200191505060405180910390f35b34801561060557600080fd5b5061060e611871565b60405180856000191660001916815260200184815260200183815260200182815260200194505050505060405180910390f35b34801561064d57600080fd5b50610656611a7b565b6040518082815260200191505060405180910390f35b34801561067857600080fd5b50610681611a85565b6040518082815260200191505060405180910390f35b3480156106a357600080fd5b506106d6600480360381019080803590602001909291908035906020019092919080359060200190929190505050611a8b565b005b3480156106e457600080fd5b506106ed611af9565b6040518082815260200191505060405180910390f35b34801561070f57600080fd5b5061072e60048036038101908080359060200190929190505050611b18565b005b34801561073c57600080fd5b50610745611bec565b6040518082815260200191505060405180910390f35b34801561076757600080fd5b5061078660048036038101908080359060200190929190505050611bf6565b005b34801561079457600080fd5b506107b360048036038101908080359060200190929190505050611d01565b6040518082815260200191505060405180910390f35b3480156107d557600080fd5b5061081e60048036038101908080356000191690602001909291908035600019169060200190929190803560001916906020019092919080359060200190929190505050611d58565b005b34801561082c57600080fd5b5061084b60048036038101908080359060200190929190505050611e6a565b6040518082815260200191505060405180910390f35b34801561086d57600080fd5b50610876611ec1565b6040518082815260200191505060405180910390f35b6108ca600480360381019080803560001916906020019092919080356000191690602001909291908035600019169060200190929190505050611eda565b005b3480156108d857600080fd5b50610905600480360381019080803590602001909291908035600019169060200190929190505050611f73565b604051808215151515815260200191505060405180910390f35b34801561092b57600080fd5b50610934611f90565b6040518082815260200191505060405180910390f35b34801561095657600080fd5b5061095f611f96565b6040518082815260200191505060405180910390f35b34801561098157600080fd5b5061098a611f9c565b604051808273ffffffffffffffffffffffffffffffffffffffff1673ffffffffffffffffffffffffffffffffffffffff16815260200191505060405180910390f35b3480156109d857600080fd5b506109f760048036038101908080359060200190929190505050611fe4565b604051808473ffffffffffffffffffffffffffffffffffffffff1673ffffffffffffffffffffffffffffffffffffffff168152602001838152602001828152602001935050505060405180910390f35b348015610a5357600080fd5b50610a726004803603810190808035906020019092919050505061203d565b6040518082815260200191505060405180910390f35b348015610a9457600080fd5b50610a9d612094565b604051808273ffffffffffffffffffffffffffffffffffffffff1673ffffffffffffffffffffffffffffffffffffffff16815260200191505060405180910390f35b348015610aeb57600080fd5b50610af461209c565b6040518082815260200191505060405180910390f35b348015610b1657600080fd5b50610b4b600480360381019080803573ffffffffffffffffffffffffffffffffffffffff1690602001909291905050506120bb565b6040518082815260200191505060405180910390f35b348015610b6d57600080fd5b50610b76612107565b6040518082815260200191505060405180910390f35b60008133604051808381526020018273ffffffffffffffffffffffffffffffffffffffff1673ffffffffffffffffffffffffffffffffffffffff166c010000000000000000000000000281526014019250505060405180910390209050919050565b60008080549050905090565b60055481565b614e2081565b60006078905090565b610c4960008080549050600354811515610c2557fe5b06815481101515610c3257fe5b90600052602060002090600302016001015461203d565b60065403600681905550610c8d60008080549050600354811515610c6957fe5b06815481101515610c7657fe5b90600052602060002090600302016001015461203d565b6002600080600080549050600354811515610ca457fe5b06815481101515610cb157fe5b906000526020600020906003020160000160009054906101000a900473ffffffffffffffffffffffffffffffffffffffff1673ffffffffffffffffffffffffffffffffffffffff1673ffffffffffffffffffffffffffffffffffffffff16815260200190815260200160002060008282540192505081905550610d45600080549050600354811515610d3f57fe5b06611bf6565b600080805490501115610fb257610d8c60008080549050600454811515610d6857fe5b06815481101515610d7557fe5b906000526020600020906003020160010154611d01565b60065403600681905550610dd060008080549050600454811515610dac57fe5b06815481101515610db957fe5b906000526020600020906003020160010154611d01565b6002600080600080549050600454811515610de757fe5b06815481101515610df457fe5b906000526020600020906003020160000160009054906101000a900473ffffffffffffffffffffffffffffffffffffffff1673ffffffffffffffffffffffffffffffffffffffff1673ffffffffffffffffffffffffffffffffffffffff16815260200190815260200160002060008282540192505081905550610e88600080549050600454811515610e8257fe5b06611bf6565b600080805490501115610fb157610ecf60008080549050600554811515610eab57fe5b06815481101515610eb857fe5b906000526020600020906003020160010154611e6a565b60065403600681905550610f1360008080549050600554811515610eef57fe5b06815481101515610efc57fe5b906000526020600020906003020160010154611e6a565b6002600080600080549050600554811515610f2a57fe5b06815481101515610f3757fe5b906000526020600020906003020160000160009054906101000a900473ffffffffffffffffffffffffffffffffffffffff1673ffffffffffffffffffffffffffffffffffffffff1673ffffffffffffffffffffffffffffffffffffffff168152602001908152602001600020600082825401925050819055505b5b600080610fbf9190612140565b565b60035481565b600080614e2060075443031015156111525760009150600090505b600160003373ffffffffffffffffffffffffffffffffffffffff1673ffffffffffffffffffffffffffffffffffffffff1681526020019081526020016000208054905081101561113b5760018060003373ffffffffffffffffffffffffffffffffffffffff1673ffffffffffffffffffffffffffffffffffffffff1681526020019081526020016000208281548110151561107957fe5b906000526020600020906006020160050154611093611ec1565b03141561112e576110a6858585846116c7565b9150811561112d57611114600160003373ffffffffffffffffffffffffffffffffffffffff1673ffffffffffffffffffffffffffffffffffffffff168152602001908152602001600020828154811015156110fd57fe5b906000526020600020906006020160030154611b18565b61111f858585611a8b565b61112881611159565b61113b565b5b8080600101915050610fe2565b611143611833565b1561115157611150610c0f565b5b5b5050505050565b6000600160003373ffffffffffffffffffffffffffffffffffffffff1673ffffffffffffffffffffffffffffffffffffffff16815260200190815260200160002080549050821015156111ab57611364565b8190505b60018060003373ffffffffffffffffffffffffffffffffffffffff1673ffffffffffffffffffffffffffffffffffffffff168152602001908152602001600020805490500381101561131057600160003373ffffffffffffffffffffffffffffffffffffffff1673ffffffffffffffffffffffffffffffffffffffff1681526020019081526020016000206001820181548110151561124a57fe5b9060005260206000209060060201600160003373ffffffffffffffffffffffffffffffffffffffff1673ffffffffffffffffffffffffffffffffffffffff168152602001908152602001600020828154811015156112a457fe5b906000526020600020906006020160008201548160000190600019169055600182015481600101906000191690556002820154816002019060001916905560038201548160030155600482015481600401556005820154816005015590505080806001019150506111af565b600160003373ffffffffffffffffffffffffffffffffffffffff1673ffffffffffffffffffffffffffffffffffffffff1681526020019081526020016000208054809190600190036113629190612164565b505b5050565b600080600080600160003373ffffffffffffffffffffffffffffffffffffffff1673ffffffffffffffffffffffffffffffffffffffff16815260200190815260200160002060018154811015156113bb57fe5b906000526020600020906006020160020154600160003373ffffffffffffffffffffffffffffffffffffffff1673ffffffffffffffffffffffffffffffffffffffff168152602001908152602001600020600181548110151561141a57fe5b906000526020600020906006020160030154600160003373ffffffffffffffffffffffffffffffffffffffff1673ffffffffffffffffffffffffffffffffffffffff168152602001908152602001600020600181548110151561147957fe5b906000526020600020906006020160040154600160003373ffffffffffffffffffffffffffffffffffffffff1673ffffffffffffffffffffffffffffffffffffffff16815260200190815260200160002060018154811015156114d857fe5b906000526020600020906006020160050154935093509350935090919293565b6000611502610bee565b60045481151561150e57fe5b06905090565b600030905090565b600080600260003373ffffffffffffffffffffffffffffffffffffffff1673ffffffffffffffffffffffffffffffffffffffff1681526020019081526020016000205411151561156b57600080fd5b600260003373ffffffffffffffffffffffffffffffffffffffff1673ffffffffffffffffffffffffffffffffffffffff1681526020019081526020016000205490506000600260003373ffffffffffffffffffffffffffffffffffffffff1673ffffffffffffffffffffffffffffffffffffffff168152602001908152602001600020819055503373ffffffffffffffffffffffffffffffffffffffff166108fc3a83039081150290604051600060405180830381858888f1935050505015801561163a573d6000803e3d6000fd5b5050565b6000611648610bee565b60035481151561165457fe5b06905090565b600043905090565b600061166c610bee565b60055481151561167857fe5b06905090565b6000600260008373ffffffffffffffffffffffffffffffffffffffff1673ffffffffffffffffffffffffffffffffffffffff168152602001908152602001600020549050919050565b6000600160003373ffffffffffffffffffffffffffffffffffffffff1673ffffffffffffffffffffffffffffffffffffffff1681526020019081526020016000208281548110151561171557fe5b9060005260206000209060060201600001546000191661173486610b8c565b600019161480156117b15750600160003373ffffffffffffffffffffffffffffffffffffffff1673ffffffffffffffffffffffffffffffffffffffff1681526020019081526020016000208281548110151561178c57fe5b906000526020600020906006020160010154600019166117ab85610b8c565b60001916145b80156118295750600160003373ffffffffffffffffffffffffffffffffffffffff1673ffffffffffffffffffffffffffffffffffffffff1681526020019081526020016000208281548110151561180457fe5b9060005260206000209060060201600201546000191661182384610b8c565b60001916145b9050949350505050565b6000619c4060075443031015801561185c57506000614e20600754430381151561185957fe5b06145b801561186c575060008080549050115b905090565b6000806000806118816000611159565b60018060003373ffffffffffffffffffffffffffffffffffffffff1673ffffffffffffffffffffffffffffffffffffffff16815260200190815260200160002080549050101515611a5557600160003373ffffffffffffffffffffffffffffffffffffffff1673ffffffffffffffffffffffffffffffffffffffff168152602001908152602001600020600081548110151561191957fe5b906000526020600020906006020160020154600160003373ffffffffffffffffffffffffffffffffffffffff1673ffffffffffffffffffffffffffffffffffffffff168152602001908152602001600020600081548110151561197857fe5b906000526020600020906006020160030154600160003373ffffffffffffffffffffffffffffffffffffffff1673ffffffffffffffffffffffffffffffffffffffff16815260200190815260200160002060008154811015156119d757fe5b906000526020600020906006020160040154600160003373ffffffffffffffffffffffffffffffffffffffff1673ffffffffffffffffffffffffffffffffffffffff1681526020019081526020016000206000815481101515611a3657fe5b9060005260206000209060060201600501549350935093509350611a75565b600160026003600483600102935082925081915080905093509350935093505b90919293565b6000600654905090565b60045481565b3373ffffffffffffffffffffffffffffffffffffffff168360035418186003819055503373ffffffffffffffffffffffffffffffffffffffff168260045418186004819055503373ffffffffffffffffffffffffffffffffffffffff16816005541818600581905550505050565b60003073ffffffffffffffffffffffffffffffffffffffff1631905090565b60008054809190600101611b2c9190612196565b506060604051908101604052803373ffffffffffffffffffffffffffffffffffffffff168152602001828152602001611b63611ec1565b8152506000600160008054905003815481101515611b7d57fe5b906000526020600020906003020160008201518160000160006101000a81548173ffffffffffffffffffffffffffffffffffffffff021916908373ffffffffffffffffffffffffffffffffffffffff160217905550602082015181600101556040820151816002015590505050565b6000600754905090565b6000808054905082101515611c0a57611cfd565b8190505b600160008054905003811015611ce657600060018201815481101515611c3057fe5b9060005260206000209060030201600082815481101515611c4d57fe5b90600052602060002090600302016000820160009054906101000a900473ffffffffffffffffffffffffffffffffffffffff168160000160006101000a81548173ffffffffffffffffffffffffffffffffffffffff021916908373ffffffffffffffffffffffffffffffffffffffff16021790555060018201548160010155600282015481600201559050508080600101915050611c0e565b6000805480919060019003611cfb9190612196565b505b5050565b60006001821415611d22576004600654811515611d1a57fe5b049050611d53565b6002821415611d41576008600654811515611d3957fe5b049050611d53565b6010600654811515611d4f57fe5b0490505b919050565b600160003373ffffffffffffffffffffffffffffffffffffffff1673ffffffffffffffffffffffffffffffffffffffff16815260200190815260200160002060c060405190810160405280866000191681526020018560001916815260200184600019168152602001838152602001438152602001611dd5611ec1565b81525090806001815401808255809150509060018203906000526020600020906006020160009091929091909150600082015181600001906000191690556020820151816001019060001916905560408201518160020190600019169055606082015181600301556080820151816004015560a082015181600501555050503460066000828254019250508190555050505050565b60006001821415611e8b576008600654811515611e8357fe5b049050611ebc565b6002821415611eaa576010600654811515611ea257fe5b049050611ebc565b6020600654811515611eb857fe5b0490505b919050565b6000614e206007544303811515611ed457fe5b04905090565b661c6bf52634000034101515611ef857611ef78383836001611d58565b5b661c6bf52634000034108015611f155750660e35fa931a00003410155b15611f2857611f278383836002611d58565b5b660e35fa931a000034108015611f45575066071afd498d00003410155b15611f5857611f578383836004611d58565b5b611f60611833565b15611f6e57611f6d610c0f565b5b505050565b60008160001916611f8384610b8c565b6000191614905092915050565b60065481565b60075481565b6000806001815481101515611fad57fe5b906000526020600020906003020160000160009054906101000a900473ffffffffffffffffffffffffffffffffffffffff16905090565b600081815481101515611ff357fe5b90600052602060002090600302016000915090508060000160009054906101000a900473ffffffffffffffffffffffffffffffffffffffff16908060010154908060020154905083565b6000600182141561205e57600260065481151561205657fe5b04905061208f565b600282141561207d57600460065481151561207557fe5b04905061208f565b600860065481151561208b57fe5b0490505b919050565b600033905090565b60003073ffffffffffffffffffffffffffffffffffffffff1631905090565b6000600160008373ffffffffffffffffffffffffffffffffffffffff1673ffffffffffffffffffffffffffffffffffffffff168152602001908152602001600020805490509050919050565b60008060008054905060055481151561211c57fe5b0681548110151561212957fe5b906000526020600020906003020160010154905090565b508054600082556003029060005260206000209081019061216191906121c8565b50565b81548183558181111561219157600602816006028360005260206000209182019101612190919061221e565b5b505050565b8154818355818111156121c3576003028160030283600052602060002091820191016121c291906121c8565b5b505050565b61221b91905b8082111561221757600080820160006101000a81549073ffffffffffffffffffffffffffffffffffffffff021916905560018201600090556002820160009055506003016121ce565b5090565b90565b61226a91905b80821115612266576000808201600090556001820160009055600282016000905560038201600090556004820160009055600582016000905550600601612224565b5090565b905600a165627a7a723058201aadacfd5766dcfa523e6d47baf3a9b4321441d3c35681b71bf01b6f3ec0affb0029",
  "source": " pragma solidity ^0.4.4;\n\ncontract Lottery {\n    \n    //represents one participation.That is, it contains info for one ticket\n    struct Player{\n        //hash of random numbers that is supplied by the purchasers\n        bytes32 firstHashValue;\n        bytes32 secondHashValue;\n        bytes32 thirdHashValue;\n        //ticket form such as 1 represents full ticket\n        uint ticketInfo;\n        //block number when ticket is bought\n        uint256 blockNumber;\n        //shows lottery half round index (index period of 20000)\n        uint256 submissionHalfRoundIndex;\n    }\n    \n    //represents participants that their random numbers matches hash of the these numbers\n    struct PlayerRevealedInfo{\n        //address of entitled to Draw\n        address entitledToDrawAddres;\n        //ticket form such as 1 represents full ticket\n        uint ticketInfo;\n        //shows lottery half round index (index period of 20000)\n        uint256 revealedHalfRoundIndex;\n    }\n    \n    //list of participants that are entitled to participate in the draw\n    PlayerRevealedInfo[] public revealedList;\n    \n    //allows us look up all players with the Ethereum address \n    mapping(address => Player[]) players;\n    \n    //allows the winners with Ethereum address withdraw their reward money.it is like an account\n    mapping(address => uint) prizeMap;\n    \n    //decides how many blocks each round will last*\n    uint constant public blocksHalfRound=20000;\n    \n    //XOR operation result numbers of the random numbers\n    uint256 public XORFirstNumber;\n    uint256 public XORSecondNumber;\n    uint256 public XORThirdNumber;\n    \n    //ticket form such as 2 represents half ticket\n    uint constant fullTicket = 1;\n    uint constant halfTicket = 2;\n    uint constant quarterTicket = 4;\n    \n    //represents circulating money in the lottery\n    uint256 public balance;\n    \n    //represents firstBlockNumber when initializing lottery\n    uint256 public firstBlockNumber;\n    \n    //Constructor-balance sets to 0 at the creation time\n    constructor() public {\n      balance=0;\n      firstBlockNumber=block.number;\n    }\n    \n    //In this function, participant send hash of three random numbers (numbers appends to participant's address for each number) to the contract.\n    //According to money that participant sends, ticket form is determined and submission is fired.\n    function buyTicket(bytes32 firstHashValue,bytes32 secondHashValue,bytes32 thirdHashValue) public payable {\n        if(msg.value>=8 finney){\n            submission(firstHashValue,secondHashValue,thirdHashValue,fullTicket);\n        }\n        if(msg.value<8 finney && msg.value>=4 finney){\n            submission(firstHashValue,secondHashValue,thirdHashValue,halfTicket);\n        }\n        if(msg.value<4 finney && msg.value>=2 finney){\n            submission(firstHashValue,secondHashValue,thirdHashValue,quarterTicket);\n        }\n        if(isDrawPossible()){\n            draw();\n        }\n    }\n    \n    //In this function, participant info is pushed into the mapping players in terms of participant address.\n    //money that participant sends added to the lottery balance\n    function submission(bytes32 firstHashValue,bytes32 secondHashValue,bytes32 thirdHashValue,uint ticketInfo) public{\n        players[msg.sender].push(Player(firstHashValue,secondHashValue,thirdHashValue,ticketInfo,block.number,getLotteryHalfRoundIndex()));\n        balance += msg.value;\n    }\n    \n    //During the reveal stage phase, the participants must send in their secret integers, which are hashed \n    //and compared to their original submission.If the user does not submit a valid Numbers in time, his deposit is forfeit.\n    function revealStage(uint256 firstNumber,uint256 secondNumber,uint256 thirdNumber) public {\n\n        if(block.number-firstBlockNumber>=20000){ \n        \n            bool isAllNumbersReveal=false;\n            for (uint index=0; index<players[msg.sender].length; index++) {\n                \n                //look at whether the random numbers are completely revealed or not.\n                //true reveal numbers and true submitted hashes (difference round between reveal and submitted must be 1)\n                if(getLotteryHalfRoundIndex()-players[msg.sender][index].submissionHalfRoundIndex==1){\n                    \n                    isAllNumbersReveal=revealSecretNumberHash(firstNumber,secondNumber,thirdNumber,index);\n                    //if reveal operation is successful\n                    if(isAllNumbersReveal){\n                        \n                        //participant address that is entitled to participate in the draw is added to revealed list \n                        addRevealedInfoToList(players[msg.sender][index].ticketInfo);\n                        \n                        //It is OK\n                        performXOROperations(firstNumber,secondNumber,thirdNumber);\n                        \n                        //This operation prevents that same ticket wins the lottery more than one.\n                        deletePlayerFromPlayers(index);\n                        break;\n                    }\n                    \n                }\n                \n            }\n            if(isDrawPossible()){\n                draw();\n            }\n        }\n    }\n    \n    //Winner is determined in this function, after all secret numbers have been successfully collected. \n    //There is no any reveal process first 20000 blocks. \n    //Ticket purchase and random number submission stage runs for a period of 20000 blocks like in the reveal stage\n    //One lottery runs for a period of 40000 blocks.\n    //the contract XOR's the submits numbers together and uses that as a random number to pick a winner.\n    function draw() public{\n            \n        //at the time of drawing the lottery, submissionHalfRoundIndex is i, revealedHalfRoundIndex is i+1, currentIndex is i+2*\n        // First prize,second prize and third prize are determined ,respectively XORFirstNumber, XORSecondNumber and XORThirdNumber.\n        //These XORs is divided by revealedList.length to determine the index of winner in the list.\n        balance = balance-firstPrizeForTicketInfo(revealedList[XORFirstNumber%revealedList.length].ticketInfo);\n        //prize of the unique address added to prizeMap(like an account)\n        prizeMap[revealedList[XORFirstNumber%revealedList.length].entitledToDrawAddres] +=firstPrizeForTicketInfo(revealedList[XORFirstNumber%revealedList.length].ticketInfo);\n        //prevent that same ticket win the lottery more than one.\n        removeWinnerFromRevealedList(XORFirstNumber%revealedList.length);\n        \n        if(revealedList.length>0){\n            balance = balance-secondPrizeForTicketInfo(revealedList[XORSecondNumber%revealedList.length].ticketInfo);\n            //prize of the unique address added to prizeMap(like an account)\n            prizeMap[revealedList[XORSecondNumber%revealedList.length].entitledToDrawAddres] += secondPrizeForTicketInfo(revealedList[XORSecondNumber%revealedList.length].ticketInfo);\n            //prevent that same ticket win the lottery more than one.\n            removeWinnerFromRevealedList(XORSecondNumber%revealedList.length);\n            \n            if(revealedList.length>0){\n                //the amount  that  was carried over to  the current round   from   the previous  round.\n                balance = balance-thirdPrizeForTicketInfo(revealedList[XORThirdNumber%revealedList.length].ticketInfo);\n                //prize of the unique address added to prizeMap(like an account)\n                prizeMap[revealedList[XORThirdNumber%revealedList.length].entitledToDrawAddres] += thirdPrizeForTicketInfo(revealedList[XORThirdNumber%revealedList.length].ticketInfo);\n            }\n        }\n        \n        //In the end of the function, we delete the revealedList for the next lottery.\n        delete revealedList;\n            \n    } \n    \n    function isDrawPossible() public view returns(bool){\n        return (block.number-firstBlockNumber)>=40000 && (block.number-firstBlockNumber)%20000==0 && revealedList.length>0;\n    }\n    \n    //reveals whether hash of appending number and address matches hash that was submitted in the first stage.\n    function revealSecretNumberHash(uint256 firstNumber,uint256 secondNumber,uint256 thirdNumber,uint256 index) public constant returns(bool){\n        \n         return getKeccakHash(firstNumber) == players[msg.sender][index].firstHashValue &&\n                    getKeccakHash(secondNumber) == players[msg.sender][index].secondHashValue &&\n                        getKeccakHash(thirdNumber) == players[msg.sender][index].thirdHashValue;\n    \n    }\n    \n    function getKeccakHash(uint256 num) public view returns (bytes32) {\n        return keccak256(num,msg.sender);\n    }\n    \n    //This function is used to add verified user into the revealedList\n    function addRevealedInfoToList(uint ticketInfo) public {\n        revealedList.length++;\n        revealedList[revealedList.length-1] = PlayerRevealedInfo(msg.sender,ticketInfo,getLotteryHalfRoundIndex());\n    }\n    \n    \n    //The lottery half round index  tells us which half round we are on*\n    function getLotteryHalfRoundIndex() constant public returns (uint256){\n        return (block.number-firstBlockNumber)/blocksHalfRound;\n    }\n    \n    function performXOROperations(uint256 firstNumber,uint256 secondNumber,uint256 thirdNumber) public{\n        //three numbers are expose to XOR operation\n        XORFirstNumber=XORFirstNumber^firstNumber^uint256(msg.sender);\n        XORSecondNumber=XORSecondNumber^secondNumber^uint256(msg.sender);\n        XORThirdNumber=XORThirdNumber^thirdNumber^uint256(msg.sender);\n    }\n    \n    //It prevents that same ticket wins the lottery more than one.\n    function deletePlayerFromPlayers(uint index) public{\n        if (index >= players[msg.sender].length) return;\n        for (uint i = index; i<players[msg.sender].length-1; i++){\n            players[msg.sender][i] = players[msg.sender][i+1];\n        }\n        players[msg.sender].length--;\n    }\n    \n    function removeWinnerFromRevealedList(uint index) public{\n        if (index >= revealedList.length) return;\n        for (uint i = index; i<revealedList.length-1; i++){\n            revealedList[i] = revealedList[i+1];\n        }\n        revealedList.length--;\n    }\n    \n    // determines first prize in terms of ticket info\n    function firstPrizeForTicketInfo(uint ticketInfo) public view returns(uint){\n        if(ticketInfo==1){\n            return balance/2;\n        }else if (ticketInfo==2){\n            return balance/4;\n        }else{\n            return balance/8;\n        }\n    }\n    \n    //determines second prize in terms of ticket info\n    function secondPrizeForTicketInfo(uint ticketInfo) public view returns(uint){\n        if(ticketInfo==1){\n            return balance/4;\n        }else if (ticketInfo==2){\n            return balance/8;\n        }else{\n            return balance/16;\n        }\n    }\n    \n    //determines third prize in terms of ticket info\n    function thirdPrizeForTicketInfo(uint ticketInfo) public view returns(uint){\n        if(ticketInfo==1){\n            return balance/8;\n        }else if (ticketInfo==2){\n            return balance/16;\n        }else{\n            return balance/32;\n        }\n    }\n    \n    //The participant that wins the lottery withdraw the money from prizeMap whenever he/she wants via this function\n    function withdraw() public {\n        if(prizeMap[msg.sender]<=0 finney){\n            revert();\n        }else{\n            uint256 prize=prizeMap[msg.sender];\n            prizeMap[msg.sender]=0;\n            msg.sender.transfer(prize-tx.gasprice);\n        }\n    }\n    \n    ///////////////////  TESTING PURPOSE   ///////////////////\n    function getFirstBlockNumber() public view returns (uint) {\n        return firstBlockNumber;\n    }\n    \n    function getBlockNumber() public view returns (uint) {\n        return block.number;\n    }\n    function getAccountBalance() public view returns (uint) {\n        return address(this).balance;\n    }\n    \n    function getLotteryBalance() public view returns (uint) {\n        return balance;\n    }\n    \n    function isHashTrue(uint256 number,bytes32 hashNumber) public view returns(bool){\n        return getKeccakHash(number)==hashNumber;\n    }\n    \n    function getAddress() public view returns (address) {\n        return this;\n    }\n    \n \n    function getPlayer() public view returns (bytes32,uint,uint256,uint256){\n         return (players[msg.sender][1].thirdHashValue,players[msg.sender][1].ticketInfo,players[msg.sender][1].blockNumber,players[msg.sender][1].submissionHalfRoundIndex); // return multiple values like this\n    }\n    \n    function getPlayerAfterDelete() public  returns (bytes32,uint,uint256,uint256){\n         deletePlayerFromPlayers(0);\n         if(players[msg.sender].length >=1){\n             return (players[msg.sender][0].thirdHashValue,players[msg.sender][0].ticketInfo,players[msg.sender][0].blockNumber,players[msg.sender][0].submissionHalfRoundIndex); // return multiple values like this\n         }else{\n             return (1,2,3,4);\n         }\n    }\n\n    function getPlayerLength(address adressOfPlayer) public view returns (uint) {\n        return players[adressOfPlayer].length;\n    }\n    \n    function XORdivideFirst() public view returns (uint256) {\n        return XORFirstNumber%getRevealListLength();\n    }\n    function XORdivideSecond() public view returns (uint256) {\n        return XORSecondNumber%getRevealListLength();\n    }\n    \n    function XORdivideThird() public view returns (uint256) {\n        return XORThirdNumber%getRevealListLength();\n    }\n    \n    \n    function XORStatic() public pure returns (uint256) {\n        return 3^123;\n    }\n    \n    \n    function getRevealListLength() public view returns (uint) {\n        return revealedList.length;\n    }\n    \n    function getRevealListTicketInfo() public view returns (uint) {\n        return revealedList[XORThirdNumber%revealedList.length].ticketInfo;\n    }\n    \n    function getRevealListAddress() public view returns (address) {\n        return revealedList[1].entitledToDrawAddres;\n    }\n    \n    function getPrizeMapForAddress(address prizeAddress) public view returns (uint) {\n        return prizeMap[prizeAddress];\n    }\n\n    function getAddressSenderForTest() public view returns (address) {\n        return msg.sender;\n    }\n\n\n    function getTotalBalanceForTest() public view returns (uint256) {\n        return address(this).balance;\n    }\n    \n    \n}",
  "sourcePath": "/Users/hatipkabak/Desktop/homework-1-hatipkabak/contracts/Lottery.sol",
  "compiler": {
    "name": "solc",
    "version": "0.4.23+commit.124ca40d.Emscripten.clang"
  },
  "schemaVersion": "2.0.0",
  "updatedAt": "2018-04-23T18:57:58.752Z"
}